:020000040000FA
:040000008031212802
:100008007E1480312000131C0A280B280E28131098
:1000180095019717911D112812281828911124006D
:10002800110823009A001F28901E1B281C281F282F
:100038008031EA2080317E10090080312328F001C8
:10004800F101F201F301F401F501F601F701F801FC
:10005800F901FA017E1020008131042922008C0167
:1000680008308E00373021008C0025308E002300A8
:100078008E0137308C0024008C018E0125008C0104
:100088008E01373026008C003F308E003F3027002D
:100098008C003F308E0011303C00A0001030A800CA
:1000A80004303D00A1001430A40012303C00AA0026
:1000B8001330A2001130A9001030A1000800083048
:1000C80023009F0080309D0024309E0003309B0059
:1000D8009C010030FB000030FC008131262180317A
:1000E8000030FB000030FC008131212180310030DC
:1000F800FB000030FC0081312B218031FA0108001F
:1001080081310F2180318031322080318031F820D7
:1001180080318131302180318031D9208031803166
:100128009D2080318031B42080318031632080313E
:10013800080084303E0091009201013093000230A3
:1001480094009501023096000830970020309800FE
:1001580099018D309000200013102100131408001D
:1001680053302000980063309600950190122100CA
:100178009016C730FB000030FC0081311721803118
:1001880020009701080020009713950122008E1582
:100198000D3023009A00A0300032890BD0282200AD
:1001A8008E110A3023009A0008002400940134308C
:1001B80095009701FF3091000030FB000030FC00F3
:1001C80081311C21803121009115080078087904BB
:1001D8000319EF28F028F52879088A0078080A001A
:1001E8008031200090120800320099019B019D0186
:1001F80006309F009E011C1C02290329FF280800C5
:100208008031842081318B170B1781313421813162
:100218000C29803121283200910192019301940127
:100228009501960108007C08F9007B08F800080091
:100238007C08F7007B08F60008007C08F3007B08C0
:10024800F20008007C08F5007B08F40008007C0830
:10025800F1007B08F0000800163021009700080024
:06026800200097170800BA
:020000040001F9
:08000E008CFFF3FFFFFFFFFF71
:00000001FF
